:100000000C9434000C943E000C943E000C943E0082
:100010000C943E000C943E000C943E000C943E0068
:100020000C943E000C943E000C943E000C943E0058
:100030000C943E000C943E000C943E000C943E0048
:100040000C943E000C943E000C943E000C943E0038
:100050000C943E000C943E000C943E000C943E0028
:100060000C943E000C943E0011241FBECFEFD8E04C
:10007000DEBFCDBF0E9440000C945E000C940000D7
:10008000219A229A239A249A42E034E028E090E1CF
:1000900085B1842785B985B1832785B985B1822744
:1000A00085B985B1892785B95FEF63ED80E351504C
:1000B00060408040E1F700C00000EACFF894FFCF35
:00000001FF
