:100000000C9434000C943E000C943E000C943E0082
:100010000C943E000C943E000C943E000C943E0068
:100020000C943E000C943E000C943E000C943E0058
:100030000C943E000C944F000C943E000C943E0037
:100040000C943E000C943E000C943E000C943E0038
:100050000C943E000C943E000C943E000C943E0028
:100060000C943E000C943E0011241FBECFEFD8E04C
:10007000DEBFCDBF0E9461000C94A2000C94000072
:1000800085E090E035E021E016BC14BC35BDA89BAE
:10009000FECF14BC15BC25BB0197B1F708951F9284
:1000A0000F920FB60F9211248F939F9395B180E218
:1000B000892785B99F918F910F900FBE0F901F9048
:1000C000189581E090E061E070E044B19B01082E5A
:1000D00001C0220F0A94EAF7242B24B90196863036
:1000E000910599F7789481E080936F0010928000D9
:1000F00084E0809381008CED9BE090938500809359
:100100008400EE24E394F12CC1E0D0E085B18701B6
:100110000C2E01C0000F0A94EAF7802B85B90E94CB
:10012000400085B10095082305B92196C530D10559
:1001300069F72B9A0E9440002B982A9A0E9440004F
:080140002A98E2CFF894FFCFEA
:00000001FF
