:100000000C9434000C944B000C9478000C94490030
:100010000C9449000C9449000C9449000C9449003C
:100020000C9449000C9449000C9449000C9449002C
:100030000C9449000C9449000C9449000C9449001C
:100040000C9449000C9449000C9449000C9449000C
:100050000C9449000C9449000C9449000C944900FC
:100060000C9449000C94490011241FBECFEFD8E036
:10007000DEBFCDBF11E0A0E0B1E0E6EAF1E002C0F2
:1000800005900D92A230B107D9F70E94A4000C94FC
:10009000D1000C9400001F920F920FB60F92112402
:1000A0002F938F939F93809100019091010101966E
:1000B000909301018093000107972CF015B81092DE
:1000C0000101109200012FEF83ED90E32150804059
:1000D0009040E1F700C0000085B1880F85B9289AEB
:1000E0009F918F912F910F900FBE0F901F90189599
:1000F0001F920F920FB60F9211242F938F939F93FD
:1001000080910001909101010196909301018093EB
:10011000000107972CF015B8109201011092000110
:100120002FEF83ED90E3215080409040E1F700C035
:10013000000085B1880F85B99F918F912F910F9005
:100140000FBE0F901F90189580E090E061E070E086
:1001500044B19B01082E01C0220F0A94EAF7242B18
:1001600024B901968630910599F7529880916900DB
:10017000826080936900809169008160809369004A
:100180007894E89A53988091690088608093690018
:10019000809169008460809369007894E99A15B829
:0601A000FFCFF894FFCF31
:0201A600FFFF59
:00000001FF
