:100000000C9434000C943E000C943E000C943E0082
:100010000C943E000C943E000C943E000C943E0068
:100020000C943E000C943E000C943E000C943E0058
:100030000C943E000C943E000C943E000C943E0048
:100040000C943E000C943E000C943E000C943E0038
:100050000C943E000C943E000C943E000C943E0028
:100060000C943E000C943E0011241FBECFEFD8E04C
:10007000DEBFCDBF0E9440000C946E000C940000C7
:10008000579880E090E061E070E044B19B01082E59
:1000900001C0220F0A94EAF7242B24B90196863076
:1000A000910599F780E090E04F9B0FC025B1382F64
:1000B0003095232325B92FEF39E648E12150304010
:1000C0004040E1F700C0000001968F37910514F021
:1000D00080E090E025B1282B25B9E6CFF894FFCF3A
:00000001FF
