:100000000C9434000C9446000C9446000C9446006A
:100010000C9446000C9446000C9446000C94460048
:100020000C9446000C9446000C9446000C94460038
:100030000C9446000C94A8000C9446000C944600C6
:100040000C9459000C9446000C9446000C94460005
:100050000C9446000C9446000C9446000C94460008
:100060000C9446000C94460011241FBECFEFD8E03C
:10007000DEBFCDBF21E0A0E0B1E001C01D92A43001
:10008000B207E1F70E94BA000C94D1000C94000072
:100090008BEC8093B2001092B00084E08093B100AA
:1000A000B89BFECF1092B0001092B10081E087BBE8
:1000B00008951F920F920FB60F9211242F933F9322
:1000C0004F935F936F937F938F939F93AF93BF9360
:1000D000EF93FF938091000190910101A0910201A3
:1000E000B09103010196A11DB11D80930001909371
:1000F0000101A0930201B09303018091000190914E
:100100000101A0910201B09103010C97A105B10575
:1001100071F40E94480095B180E2892785B9109258
:100120000001109201011092020110920301FF914F
:10013000EF91BF91AF919F918F917F916F915F915F
:100140004F913F912F910F900FBE0F901F901895D8
:100150001F920F920FB60F9211248F939F9395B118
:1001600080E1892785B99F918F910F900FBE0F90E5
:100170001F901895259A249A789491E090936E0098
:1001800014BC84E085BD90936F0010928000809332
:10019000810016BC8EEE95E89093850080938400D4
:0601A000FFCFF894FFCF31
:00000001FF
