:100000000C9434000C943E000C943E000C943E0082
:100010000C943E000C943E000C943E000C943E0068
:100020000C943E000C943E000C943E000C943E0058
:100030000C943E000C943E000C943E000C943E0048
:100040000C943E000C943E000C943E000C943E0038
:100050000C943E000C943E000C943E000C943E0028
:100060000C943E000C943E0011241FBECFEFD8E04C
:10007000DEBFCDBF0E9450000C946E000C940000B7
:100080001092B2001092B00084E08093B100B89B4F
:10009000FECF1092B0001092B10081E087BB0895AE
:1000A000569A16BC83E884BD83E085BDC0E0C7BD19
:1000B0000AE010E00E94400001501109D9F7CF5F1B
:1000C000C038A9F7CFE7C7BD0AE010E00E944000A2
:1000D00001501109D9F7C150B0F7E8CFF894FFCF1C
:00000001FF
