:100000000C9434000C943E000C943E000C943E0082
:100010000C943E000C943E000C943E000C943E0068
:100020000C943E000C943E000C943E000C943E0058
:100030000C943E000C943E000C943E000C943E0048
:100040000C943E000C943E000C943E000C943E0038
:100050000C943E000C943E000C943E000C943E0028
:100060000C943E000C943E0011241FBECFEFD8E04C
:10007000DEBFCDBF0E9440000C947A000C940000BB
:10008000219A229A239A249A61E070E081E090E01C
:1000900045B19B01082E01C0220F0A94EAF7342FC4
:1000A000322B35B94FEF51EEE4E041505040E04083
:1000B000E1F700C0000035B12095232325B9019652
:1000C0008530910529F72B9A2FEF41EE54E021500E
:1000D00040405040E1F700C000002B982A9A8FEF73
:1000E00091EEE4E081509040E040E1F700C0000074
:0800F0002A98CCCFF894FFCF51
:00000001FF
