:100000000C9434000C943E000C943E000C943E0082
:100010000C943E000C943E000C943E000C943E0068
:100020000C943E000C943E000C943E000C943E0058
:100030000C943E000C943E000C943E000C943E0048
:100040000C943E000C943E000C943E000C943E0038
:100050000C943E000C943E000C943E000C943E0028
:100060000C943E000C943E0011241FBECFEFD8E04C
:10007000DEBFCDBF0E9456000C9488000C94000097
:100080001092B2001092B00085E08093B100B89B4E
:10009000FECF1092B0001092B10081E087BB0895AE
:1000A00016BC87BD83E884BD65BD0895569A65E09A
:1000B00070E08FEB90E00E945000C8EED3E00E9409
:1000C00040002197E1F764E070E08FEB90E00E9440
:1000D0005000C8EED3E00E9440002197E1F763E0B2
:1000E00070E08FEB90E00E945000C8EED3E00E94D9
:1000F00040002197E1F762E070E08FEB90E00E9412
:100100005000C8EED3E00E9440002197E1F7CFCF26
:04011000F894FFCF91
:00000001FF
