:100000000C9434000C9448000C9446000C94460068
:100010000C9446000C9446000C9446000C94460048
:100020000C9446000C9446000C9446000C94460038
:100030000C9446000C9446000C9446000C94460028
:100040000C9446000C9446000C9446000C94460018
:100050000C9446000C9446000C9446000C94460008
:100060000C9446000C94460011241FBECFEFD8E03C
:10007000DEBFCDBF21E0A0E0B1E001C01D92A23003
:10008000B207E1F70E946B000C948A000C94000008
:100090001F920F920FB60F9211248F939F9380910E
:1000A000000190910101019690930101809300015C
:1000B00085B980910001909101018F37910524F05D
:1000C00010920101109200019F918F910F900FBE2D
:1000D0000F901F90189580E090E061E070E044B1CF
:1000E0009B01082E01C0220F0A94EAF7242B24B9A1
:1000F00001968630910599F7529880916900826047
:1001000080936900809169008E7F80936900789464
:08011000E89AFFCFF894FFCF3D
:00000001FF
