:100000000C9434000C943E000C943E000C943E0082
:100010000C943E000C943E000C943E000C943E0068
:100020000C943E000C943E000C943E000C943E0058
:100030000C943E000C943E000C943E000C943E0048
:100040000C943E000C943E000C943E000C943E0038
:100050000C943E000C943E000C943E000C943E0028
:100060000C943E000C943E0011241FBECFEFD8E04C
:10007000DEBFCDBF0E944C000C9454000C940000D5
:1000800084E786BD14BC82E085BDA89BFECF14BC6E
:1000900015BC81E085BB0895259AC0E285B18C2707
:0C00A00085B90E944000FACFF894FFCF11
:00000001FF
